{
  "_format": "hh-sol-artifact-1",
  "contractName": "StakeERC20",
  "sourceName": "contracts/StakeERC20/StakeERC20.sol",
  "abi": [
    {
      "inputs": [
        {
          "internalType": "address",
          "name": "_rewardToken",
          "type": "address"
        }
      ],
      "stateMutability": "nonpayable",
      "type": "constructor"
    },
    {
      "inputs": [
        {
          "internalType": "address",
          "name": "",
          "type": "address"
        }
      ],
      "name": "_stakers",
      "outputs": [
        {
          "internalType": "uint256",
          "name": "stakingStartTime",
          "type": "uint256"
        },
        {
          "internalType": "uint256",
          "name": "amountStaked",
          "type": "uint256"
        },
        {
          "internalType": "bool",
          "name": "isStaked",
          "type": "bool"
        }
      ],
      "stateMutability": "view",
      "type": "function"
    },
    {
      "inputs": [],
      "name": "getContractBalance",
      "outputs": [
        {
          "internalType": "uint256",
          "name": "",
          "type": "uint256"
        }
      ],
      "stateMutability": "view",
      "type": "function"
    },
    {
      "inputs": [],
      "name": "interestRate",
      "outputs": [
        {
          "internalType": "uint256",
          "name": "",
          "type": "uint256"
        }
      ],
      "stateMutability": "view",
      "type": "function"
    },
    {
      "inputs": [],
      "name": "rewardToken",
      "outputs": [
        {
          "internalType": "contract IERC20",
          "name": "",
          "type": "address"
        }
      ],
      "stateMutability": "view",
      "type": "function"
    },
    {
      "inputs": [],
      "name": "showCurrentInterest",
      "outputs": [
        {
          "internalType": "uint256",
          "name": "",
          "type": "uint256"
        }
      ],
      "stateMutability": "view",
      "type": "function"
    },
    {
      "inputs": [
        {
          "internalType": "uint256",
          "name": "_amount",
          "type": "uint256"
        }
      ],
      "name": "stake",
      "outputs": [],
      "stateMutability": "nonpayable",
      "type": "function"
    },
    {
      "inputs": [],
      "name": "unstake",
      "outputs": [],
      "stateMutability": "nonpayable",
      "type": "function"
    }
  ],
  "bytecode": "0x6080604052600a60025534801561001557600080fd5b50604051610e05380380610e05833981810160405281019061003791906100e1565b80600160006101000a81548173ffffffffffffffffffffffffffffffffffffffff021916908373ffffffffffffffffffffffffffffffffffffffff1602179055505061010e565b600080fd5b600073ffffffffffffffffffffffffffffffffffffffff82169050919050565b60006100ae82610083565b9050919050565b6100be816100a3565b81146100c957600080fd5b50565b6000815190506100db816100b5565b92915050565b6000602082840312156100f7576100f661007e565b5b6000610105848285016100cc565b91505092915050565b610ce88061011d6000396000f3fe608060405234801561001057600080fd5b506004361061007d5760003560e01c806375e032f41161005b57806375e032f4146100c85780637c3a00fd146100fa578063a694fc3a14610118578063f7c618c1146101345761007d565b80632def662014610082578063656b20c41461008c5780636f9fb98a146100aa575b600080fd5b61008a610152565b005b61009461032a565b6040516100a1919061072f565b60405180910390f35b6100b26103eb565b6040516100bf919061072f565b60405180910390f35b6100e260048036038101906100dd91906107ad565b61048e565b6040516100f1939291906107f5565b60405180910390f35b6101026104c5565b60405161010f919061072f565b60405180910390f35b610132600480360381019061012d9190610858565b6104cb565b005b61013c610697565b60405161014991906108e4565b60405180910390f35b60008060003373ffffffffffffffffffffffffffffffffffffffff1673ffffffffffffffffffffffffffffffffffffffff16815260200190815260200160002090508060020160009054906101000a900460ff166101e5576040517f08c379a00000000000000000000000000000000000000000000000000000000081526004016101dc9061095c565b60405180910390fd5b60006101f9826000015483600101546106bd565b9050600081836001015461020d91906109ab565b90506000600160009054906101000a900473ffffffffffffffffffffffffffffffffffffffff1673ffffffffffffffffffffffffffffffffffffffff1663a9059cbb33846040518363ffffffff1660e01b815260040161026e9291906109ee565b6020604051808303816000875af115801561028d573d6000803e3d6000fd5b505050506040513d601f19601f820116820180604052508101906102b19190610a43565b9050806102f3576040517f08c379a00000000000000000000000000000000000000000000000000000000081526004016102ea90610abc565b60405180910390fd5b600084600101819055506000846000018190555060008460020160006101000a81548160ff02191690831515021790555050505050565b6000806000803373ffffffffffffffffffffffffffffffffffffffff1673ffffffffffffffffffffffffffffffffffffffff16815260200190815260200160002090508060020160009054906101000a900460ff166103be576040517f08c379a00000000000000000000000000000000000000000000000000000000081526004016103b59061095c565b60405180910390fd5b60006103d2826000015483600101546106bd565b90508160010154816103e491906109ab565b9250505090565b6000600160009054906101000a900473ffffffffffffffffffffffffffffffffffffffff1673ffffffffffffffffffffffffffffffffffffffff166370a08231306040518263ffffffff1660e01b81526004016104489190610adc565b602060405180830381865afa158015610465573d6000803e3d6000fd5b505050506040513d601f19601f820116820180604052508101906104899190610b0c565b905090565b60006020528060005260406000206000915090508060000154908060010154908060020160009054906101000a900460ff16905083565b60025481565b6000811161050e576040517f08c379a000000000000000000000000000000000000000000000000000000000815260040161050590610b85565b60405180910390fd5b60004290506000600160009054906101000a900473ffffffffffffffffffffffffffffffffffffffff1673ffffffffffffffffffffffffffffffffffffffff166323b872dd3330866040518463ffffffff1660e01b815260040161057493929190610ba5565b6020604051808303816000875af1158015610593573d6000803e3d6000fd5b505050506040513d601f19601f820116820180604052508101906105b79190610a43565b9050806105f9576040517f08c379a00000000000000000000000000000000000000000000000000000000081526004016105f090610abc565b60405180910390fd5b60006040518060600160405280848152602001858152602001600115158152509050806000803373ffffffffffffffffffffffffffffffffffffffff1673ffffffffffffffffffffffffffffffffffffffff168152602001908152602001600020600082015181600001556020820151816001015560408201518160020160006101000a81548160ff02191690831515021790555090505050505050565b600160009054906101000a900473ffffffffffffffffffffffffffffffffffffffff1681565b60008083426106cc9190610bdc565b9050600062015180826106df9190610c3f565b90506000606482600254876106f49190610c70565b6106fe9190610c70565b6107089190610c3f565b905080935050505092915050565b6000819050919050565b61072981610716565b82525050565b60006020820190506107446000830184610720565b92915050565b600080fd5b600073ffffffffffffffffffffffffffffffffffffffff82169050919050565b600061077a8261074f565b9050919050565b61078a8161076f565b811461079557600080fd5b50565b6000813590506107a781610781565b92915050565b6000602082840312156107c3576107c261074a565b5b60006107d184828501610798565b91505092915050565b60008115159050919050565b6107ef816107da565b82525050565b600060608201905061080a6000830186610720565b6108176020830185610720565b61082460408301846107e6565b949350505050565b61083581610716565b811461084057600080fd5b50565b6000813590506108528161082c565b92915050565b60006020828403121561086e5761086d61074a565b5b600061087c84828501610843565b91505092915050565b6000819050919050565b60006108aa6108a56108a08461074f565b610885565b61074f565b9050919050565b60006108bc8261088f565b9050919050565b60006108ce826108b1565b9050919050565b6108de816108c3565b82525050565b60006020820190506108f960008301846108d5565b92915050565b600082825260208201905092915050565b7f4e6f207374616b6520666f756e64000000000000000000000000000000000000600082015250565b6000610946600e836108ff565b915061095182610910565b602082019050919050565b6000602082019050818103600083015261097581610939565b9050919050565b7f4e487b7100000000000000000000000000000000000000000000000000000000600052601160045260246000fd5b60006109b682610716565b91506109c183610716565b92508282019050808211156109d9576109d861097c565b5b92915050565b6109e88161076f565b82525050565b6000604082019050610a0360008301856109df565b610a106020830184610720565b9392505050565b610a20816107da565b8114610a2b57600080fd5b50565b600081519050610a3d81610a17565b92915050565b600060208284031215610a5957610a5861074a565b5b6000610a6784828501610a2e565b91505092915050565b7f546f6b656e207472616e73666572206661696c65640000000000000000000000600082015250565b6000610aa66015836108ff565b9150610ab182610a70565b602082019050919050565b60006020820190508181036000830152610ad581610a99565b9050919050565b6000602082019050610af160008301846109df565b92915050565b600081519050610b068161082c565b92915050565b600060208284031215610b2257610b2161074a565b5b6000610b3084828501610af7565b91505092915050565b7f416d6f756e74206d7573742062652067726561746572207468616e2030000000600082015250565b6000610b6f601d836108ff565b9150610b7a82610b39565b602082019050919050565b60006020820190508181036000830152610b9e81610b62565b9050919050565b6000606082019050610bba60008301866109df565b610bc760208301856109df565b610bd46040830184610720565b949350505050565b6000610be782610716565b9150610bf283610716565b9250828203905081811115610c0a57610c0961097c565b5b92915050565b7f4e487b7100000000000000000000000000000000000000000000000000000000600052601260045260246000fd5b6000610c4a82610716565b9150610c5583610716565b925082610c6557610c64610c10565b5b828204905092915050565b6000610c7b82610716565b9150610c8683610716565b9250828202610c9481610716565b91508282048414831517610cab57610caa61097c565b5b509291505056fea26469706673582212208d4791190b820e94360477a7802f9d598cf6658352b37ad5e69d5553f125f05764736f6c63430008180033",
  "linkReferences": {},
  "deployedLinkReferences": {}
}