{
  "_format": "hh-sol-artifact-1",
  "contractName": "StakeEther",
  "sourceName": "contracts/StakeEther/StakeEther.sol",
  "abi": [
    {
      "inputs": [],
      "stateMutability": "nonpayable",
      "type": "constructor"
    },
    {
      "inputs": [
        {
          "internalType": "address",
          "name": "",
          "type": "address"
        }
      ],
      "name": "_stakers",
      "outputs": [
        {
          "internalType": "uint256",
          "name": "stakingStartTime",
          "type": "uint256"
        },
        {
          "internalType": "uint256",
          "name": "amountStaked",
          "type": "uint256"
        },
        {
          "internalType": "bool",
          "name": "isStaked",
          "type": "bool"
        }
      ],
      "stateMutability": "view",
      "type": "function"
    },
    {
      "inputs": [],
      "name": "getContractBalance",
      "outputs": [
        {
          "internalType": "uint256",
          "name": "",
          "type": "uint256"
        }
      ],
      "stateMutability": "view",
      "type": "function"
    },
    {
      "inputs": [],
      "name": "interestRate",
      "outputs": [
        {
          "internalType": "uint256",
          "name": "",
          "type": "uint256"
        }
      ],
      "stateMutability": "view",
      "type": "function"
    },
    {
      "inputs": [],
      "name": "showCurrentInterest",
      "outputs": [
        {
          "internalType": "uint256",
          "name": "",
          "type": "uint256"
        }
      ],
      "stateMutability": "view",
      "type": "function"
    },
    {
      "inputs": [],
      "name": "stake",
      "outputs": [],
      "stateMutability": "payable",
      "type": "function"
    },
    {
      "inputs": [],
      "name": "unstake",
      "outputs": [],
      "stateMutability": "payable",
      "type": "function"
    },
    {
      "stateMutability": "payable",
      "type": "receive"
    }
  ],
  "bytecode": "0x6080604052600a60015534801561001557600080fd5b50610958806100256000396000f3fe6080604052600436106100595760003560e01c80632def6620146100655780633a4b66f11461006f578063656b20c4146100795780636f9fb98a146100a457806375e032f4146100cf5780637c3a00fd1461010e57610060565b3661006057005b600080fd5b61006d610139565b005b6100776102e0565b005b34801561008557600080fd5b5061008e6103d2565b60405161009b9190610551565b60405180910390f35b3480156100b057600080fd5b506100b961049a565b6040516100c69190610551565b60405180910390f35b3480156100db57600080fd5b506100f660048036038101906100f191906105cf565b6104a2565b60405161010593929190610617565b60405180910390f35b34801561011a57600080fd5b506101236104d9565b6040516101309190610551565b60405180910390f35b60008060003373ffffffffffffffffffffffffffffffffffffffff1673ffffffffffffffffffffffffffffffffffffffff1681526020019081526020016000209050600115158160020160009054906101000a900460ff161515146101d3576040517f08c379a00000000000000000000000000000000000000000000000000000000081526004016101ca906106ab565b60405180910390fd5b60006101e7826000015483600101546104df565b905060008183600101546101fb91906106fa565b905060003373ffffffffffffffffffffffffffffffffffffffff16826040516102239061075f565b60006040518083038185875af1925050503d8060008114610260576040519150601f19603f3d011682016040523d82523d6000602084013e610265565b606091505b50509050806102a9576040517f08c379a00000000000000000000000000000000000000000000000000000000081526004016102a0906107c0565b60405180910390fd5b600084600101819055506000846000018190555060008460020160006101000a81548160ff02191690831515021790555050505050565b60003411610323576040517f08c379a000000000000000000000000000000000000000000000000000000000815260040161031a9061082c565b60405180910390fd5b6000620151804261033491906106fa565b905060006040518060600160405280838152602001348152602001600115158152509050806000803373ffffffffffffffffffffffffffffffffffffffff1673ffffffffffffffffffffffffffffffffffffffff168152602001908152602001600020600082015181600001556020820151816001015560408201518160020160006101000a81548160ff0219169083151502179055509050505050565b6000806000803373ffffffffffffffffffffffffffffffffffffffff1673ffffffffffffffffffffffffffffffffffffffff1681526020019081526020016000209050600115158160020160009054906101000a900460ff1615151461046d576040517f08c379a0000000000000000000000000000000000000000000000000000000008152600401610464906106ab565b60405180910390fd5b6000610481826000015483600101546104df565b905081600101548161049391906106fa565b9250505090565b600047905090565b60006020528060005260406000206000915090508060000154908060010154908060020160009054906101000a900460ff16905083565b60015481565b60008083426104ee919061084c565b90506000620151808261050191906108af565b905060006064826001548761051691906108e0565b61052091906108e0565b61052a91906108af565b905080935050505092915050565b6000819050919050565b61054b81610538565b82525050565b60006020820190506105666000830184610542565b92915050565b600080fd5b600073ffffffffffffffffffffffffffffffffffffffff82169050919050565b600061059c82610571565b9050919050565b6105ac81610591565b81146105b757600080fd5b50565b6000813590506105c9816105a3565b92915050565b6000602082840312156105e5576105e461056c565b5b60006105f3848285016105ba565b91505092915050565b60008115159050919050565b610611816105fc565b82525050565b600060608201905061062c6000830186610542565b6106396020830185610542565b6106466040830184610608565b949350505050565b600082825260208201905092915050565b7f4e6f74207374616b656400000000000000000000000000000000000000000000600082015250565b6000610695600a8361064e565b91506106a08261065f565b602082019050919050565b600060208201905081810360008301526106c481610688565b9050919050565b7f4e487b7100000000000000000000000000000000000000000000000000000000600052601160045260246000fd5b600061070582610538565b915061071083610538565b9250828201905080821115610728576107276106cb565b5b92915050565b600081905092915050565b50565b600061074960008361072e565b915061075482610739565b600082019050919050565b600061076a8261073c565b9150819050919050565b7f4661696c656420746f2073656e64204574686572000000000000000000000000600082015250565b60006107aa60148361064e565b91506107b582610774565b602082019050919050565b600060208201905081810360008301526107d98161079d565b9050919050565b7f416d6f756e74206d7573742062652067726561746572207468616e2030000000600082015250565b6000610816601d8361064e565b9150610821826107e0565b602082019050919050565b6000602082019050818103600083015261084581610809565b9050919050565b600061085782610538565b915061086283610538565b925082820390508181111561087a576108796106cb565b5b92915050565b7f4e487b7100000000000000000000000000000000000000000000000000000000600052601260045260246000fd5b60006108ba82610538565b91506108c583610538565b9250826108d5576108d4610880565b5b828204905092915050565b60006108eb82610538565b91506108f683610538565b925082820261090481610538565b9150828204841483151761091b5761091a6106cb565b5b509291505056fea2646970667358221220eec391595f84f2ea592a89bec45a7960ec82143f60fa854125d50315c551a37964736f6c63430008180033",
  "linkReferences": {},
  "deployedLinkReferences": {}
}